S00F00004C41425F375F312E7372656320
S11300001CC02BC02AC029C028C027C086C025C058
S113001024C023C022C021C020C01FC01EC01DC0D8
S11300201CC01BC01AC033C034C020C021C022C0B1
S113003023C024C025C026C027C011241FBECFE57D
S1130040D4E0DEBFCDBF20E0A0E6B0E001C01D9249
S1130050A636B207E1F7A6D0C9C0D2CF90E08A3065
S11300609105A0F4FC01ED5EFF4F09948BE5089522
S11300708FE4089586E608958DE608958DE7089542
S113008087E008958FE708958FE6089508958FE334
S1130090089586E008951BC083990EC08091640082
S11300A0853020F48F5F8093640011C01092650046
S11300B081E0809363000BC080916400882321F069
S11300C081508093640003C081E080936300809139
S11300D06300882309F308959DEC899F912D1124D1
S11300E0969596959695392F330F232F220F220F2D
S11300F0230F821B809362009093610008958EB554
S113010088608EBD89B7806189BF8FE08BBD82E432
S11301108ABD8EB581608EBD08951F920F920FB671
S11301200F9211242F933F934F935F936F937F9379
S11301308F939F93AF93BF93EF93FF93809160004E
S113014081110AC082B38E7F82BB82B3826082BB7C
S11301508091610083DF88BB80916000813051F41D
S113016082B38D7F82BB82B3816082BB8091620047
S113017075DF88BB81E090916000911180E08093ED
S11301806000FF91EF91BF91AF919F918F917F910B
S11301906F915F914F913F912F910F900FBE0F90F0
S11301A01F901895ACDF8FEF87BB83E081BB88E09D
S11301B082BB78941092650014C06DDF8091650055
S11301C08BDF2FE78AE196E0215080409040E1F7F1
S11301D000C0000010926300809165008F5F8093DF
S11301E0650080916500843640F3E4CFF894FFCF36
S9030000FC
