S00F00004C41425F375F322E737265631F
S113000012C021C020C01FC01EC01DC01CC01BC008
S11300101AC019C018C017C016C015C014C013C028
S113002012C011C010C011241FBECFE5D4E0DEBF42
S1130030CDBF20E0A0E6B0E001C01D92A036B2071B
S1130040E1F706D02DC0DCCF18BA88E087BB08954D
S1130050FBDF1ED013BC90E0911107C083B58F5F06
S113006083BD83B58F3F69F409C0913051F483B5E2
S1130070815083BD83B5882319F003C091E001C08A
S113008090E0EFE5FAEE3197F1F700C00000E4CF1D
S113009012BC8EE685BD14BC13BC89B789BF089514
S10700A0F894FFCFFE
S9030000FC
