:1000000012C024C023C022C021C020C01FC01EC0F7
:100010001DC01CC01BC01AC019C018C017C016C014
:1000200015C014C013C011241FBECFE5D4E0DEBF3D
:10003000CDBF10E0A0E6B0E0E4EBF0E002C0059038
:100040000D92A437B107D9F702D032C0D9CFCF93E0
:10005000DF93CDB7DEB764970FB6F894DEBF0FBE5F
:10006000CDBF8FEF87BB84E1E0E6F0E0DE011196C3
:1000700001900D928A95E1F780E090E015C0FC01B7
:10008000EE0FFF1F21E030E02C0F3D1FE20FF31FAA
:10009000208128BB3FEF49E628E131504040204015
:1000A000E1F700C0000001968A30910544F3E4CFE7
:0400B000F894FFCFF2
:1000B4003F0006005B004F0066006D007D000700F6
:0400C4007F006F004A
:00000001FF
