:100000001CC02BC02AC029C028C027C052C025C090
:1000100024C023C022C021C020C01FC01EC01DC0DC
:100020001CC01BC01AC033C034C020C021C022C0B5
:1000300023C024C025C026C027C011241FBECFE581
:10004000D4E0DEBFCDBF20E0A0E6B0E001C01D924D
:10005000A136B207E1F75ED067C0D2CF90E08A3018
:100060009105A0F4FC01ED5EFF4F09948BE5089526
:100070008FE4089586E608958DE608958DE7089546
:1000800087E008958FE708958FE6089508958FE338
:10009000089586E008958EB588608EBD89B7806129
:1000A00089BF8AE78BBD82E18ABD8EB584608EBD33
:1000B00008951F920F920FB60F9211242F933F9322
:1000C0004F935F936F937F938F939F93AF93BF9360
:1000D000EF93FF93809160008A3010F010926000DF
:1000E00080916000BBDF88BB809160008F5F809350
:1000F0006000FF91EF91BF91AF919F918F917F91A0
:100100006F915F914F913F912F910F900FBE0F9084
:100110001F901895C0DF11BA81E082BB8FEF87BBBB
:0C012000109260007894FFCFF894FFCF9D
:00000001FF
