:100000001CC02BC02AC029C028C027C026C025C0BC
:1000100024C023C022C021C020C01FC01EC01DC0DC
:100020001CC01BC01AC033C034C020C021C022C0B5
:1000300023C024C025C026C027C011241FBECFE581
:10004000D4E0DEBFCDBF20E0A0E6B0E001C01D924D
:10005000A536B207E1F774D08AC0D2CF90E08A30DB
:100060009105A0F4FC01ED5EFF4F09948BE5089526
:100070008FE4089586E608958DE608958DE7089546
:1000800087E008958FE708958FE6089508958FE338
:10009000089586E008951CC098990FC08091630070
:1000A000853020F48F5F8093630012C08FEF8093C0
:1000B000640081E0809362000BC08091630088231C
:1000C00021F081508093630003C081E0809362003F
:1000D00080916200882301F30895CF939DEC899F5E
:1000E000912D1124969596959695392F330F232FA0
:1000F000220F220F230F821B8093610090936000D8
:10010000C0E01AC0C8DF80916100A8DF88BB81E031
:1001100082BB8FE097E20197F1F700C00000809169
:1001200060009CDF88BB82E082BB8FE097E2019792
:10013000F1F700C00000CF5FC43620F3CF910895DF
:100140008FEF87BB83E081BB14BA81E085BB10923F
:10015000640008C010926200C0DF809164008F5F6D
:1001600080936400809164008436A0F3F0CFF8940B
:02017000FFCFBF
:00000001FF
