S00D00004C41425F322E73726563B7
S113000012C019C018C017C016C015C014C013C040
S113001012C011C010C00FC00EC00DC00CC00BC068
S11300200AC009C008C011241FBECFE5D4E0DEBF5A
S1130030CDBF02D05CC0E4CF8FEF87BB81E088BB2B
S11300402FE78AE196E0215080409040E1F700C01C
S1130050000080E888BB2FE78AE196E021508040C9
S11300609040E1F700C0000082E088BB2FE78AE1FE
S113007096E0215080409040E1F700C0000080E409
S113008088BB2FE78AE196E0215080409040E1F759
S113009000C0000084E088BB2FE78AE196E021508D
S11300A080409040E1F700C0000080E288BB2FE769
S11300B08AE196E0215080409040E1F700C00000C2
S11300C088E088BB2FE78AE196E021508040904089
S11300D0E1F700C0000080E188BB2FE78AE196E0E9
S11300E0215080409040E1F700C00000A7CFF89471
S10500F0FFCF3C
S9030000FC
