S00D00004C41425F362E73726563B3
S11300001CC023C022C021C020C01FC01EC01DC0F0
S11300101CC01BC01AC019C018C017C016C015C018
S113002014C013C012C02BC02CC018C019C01AC0F1
S11300301BC01CC01DC01EC01FC011241FBECFE5A5
S1130040D4E0DEBFCDBF1FD047C0DACF90E08A3006
S11300509105A0F4FC01ED5EFF4F09948BE5089532
S11300608FE4089586E608958DE608958DE7089552
S113007087E008958FE708958FE6089508958FE344
S1130080089586E008958FEF87BB11BA81E082BBA3
S1130090C0E0D0E01EC0809904C0C53030F4CF5F0A
S11300A008C0CC2329F0C15004C081E0D0E001C0D5
S11300B081E0882381F38D2FC9DF88BB2FEF89E688
S11300C098E1215080409040E1F700C00000DF5FDC
S10F00D080E0DA3070F3DDCFF894FFCF4D
S9030000FC
